:020000020000FC
:100000000C949A051197F1F70895B7E2A0E10E94C8
:100010000200B7E2A0E10E94020008950F93009150
:10002000B900087F0113FBCF0F9108950F93009142
:10003000BC0007FFFCCF0F9108950F9304EA0093D3
:10004000BC000E9416000F9108950093BB0004E8C5
:100050000093BC000E94160008950F9304E90093DA
:10006000BC000E9405000F910895B0E0A6E10E9437
:1000700002000895B0E0ABE50E9402000895B1E0EF
:10008000A9EC0E9402000895B7E2A0E10E940200DC
:10009000B7E2A0E10E9402000895BCE9A0E40E943A
:1000A0000200BCE9A0E40E94020008951F93109191
:1000B000040213FF032B13FD042B1F9108950F93CC
:1000C0001F930AE00F93002F0E9425001F9318E250
:1000D0000E940E001F910F910EEF0F93002F0E94B0
:1000E00025001F9318E20E940E001F910F910E949D
:1000F00035000E941D000F9300E701600E9425005B
:100100001F9310E40E940E001F910F911091BB00ED
:100110000E9427000E941D000F9300E70E94250007
:100120001F9318E10E940E001F910F910AE00F9398
:10013000002F0E9425001F9318E20E940E001F91BD
:100140000F910EEF0F93002F0E9425001F9318E2CE
:100150000E940E001F910F910E9435000AE00F933C
:10016000002F0E9425001F9318E20E940E001F918D
:100170000F9108E00F93002F0E9425001F9318E2B3
:100180000E940E001F910F9117FD99CF1F910F91A3
:1001900008950E94CE000E94FA0008950F93007FF8
:1001A0000F933F934F9334E04CE00E9456004F91E1
:1001B0003F910F93002F0E9425001F9318E20E9489
:1001C0000E001F910F910F913F934F9330E048E045
:1001D0000E9456004F913F910E9435000F93002FCF
:1001E0000E9425001F9318E20E940E001F910F919C
:1001F0000F9108950295007F0F933F934F9334E042
:100200004CE00E9456004F913F910F93002F0E94A7
:1002100025001F9318E20E940E001F910F910F916D
:100220003F934F9330E048E00E9456004F913F913A
:100230000E9435000F93002F0E9425001F9318E2A3
:100240000E940E001F910F9108950E942A010E94A2
:10025000580108950F93007F0F933F934F9335E01C
:100260004DE00E9456004F913F910F93002F0E9446
:1002700025001F9318E20E940E001F910F910F910D
:100280003F934F9331E049E00E9456004F913F91D8
:100290000E9435000E9435000F93002F0E94250018
:1002A0001F9318E20E940E001F910F910F91089565
:1002B0000295007F0F933F934F9335E04DE00E94EE
:1002C00056004F913F910F93002F0E9425001F93DE
:1002D00018E20E940E001F910F910F913F934F93D0
:1002E00031E049E00E9456004F913F910E94350055
:1002F0000E9435000F93002F0E9425001F9318E2E3
:100300000E940E001F910F91089503E00E944D007E
:100310000E941D000F9300E70E9425001F9318E123
:100320000E940E001F910F9100E30E94CE000E94D8
:10033000440000E30E94CE000E943F0000E30E94C0
:10034000CE0000E20E94CE000E945F0000910002F9
:100350000F93002F0E94C9000F910E945F0000912F
:1003600001020E943F000F93002F0E94C9000F91CD
:100370000E945F0001E00E943F000F93002F0E9447
:10038000C9000F910E945F00009102020E943F008D
:100390000F93002F0E94C9000F91009110000F933E
:1003A000002F0E94C9000F910E942D000895113066
:1003B00031F0123039F0133041F0143049F01FE7BA
:1003C000010F08C01FEB010F05C013E9010F02C0A8
:1003D00013ED010F102F1058109305020F93002FEB
:1003E0000E94C9000F9108953F9330910502339503
:1003F000343151F40F931F9312E001E00E94D701B2
:100400001F910F913F910895343551F40F931F932D
:1004100013E001E00E94D7011F910F913F910895D1
:10042000383251F40F931F9314E001E00E94D7017A
:100430001F910F913F910895383651F40F931F93F8
:1004400011E001E00E94D7011F910F913F910895A3
:10045000309305023F9108951F930F9315910591D5
:100460000F93002F0E9425010F910E94F4011A950D
:10047000B1F70F911F9108951F930F93119101915F
:100480000F93002F0E9425010F910E94F4011A95ED
:10049000B1F70F911F910895B0E0A5E1B3DD089584
:1004A000B0E0ADEFAFDD0895B0E0ADEEABDD0895A7
:1004B000B0E0A5E2A7DD0895B0E0A1E2A3DD0895D4
:1004C000B0E0A9ED9FDD0895B7E0ADE79BDD0895AD
:1004D000B1E0A5E197DD0895B6E0A5E693DD0895C6
:1004E000BCE9A0E48FDD08950F930BE40E94700235
:1004F0000A95E1F70F9108950091210200FD0C94F7
:10050000AA020F93009121020D7F009321020F9107
:1005100001911CE83A9521910E94AB023A95D9F7D6
:10052000003009F011F40C94AA02042F1127389717
:1005300011930A95E9F70F9300912102026000934D
:1005400021020F91483021F40E9498050C94AA02D0
:100550000E9499050895F89458E05A954CF0279513
:1005600007956FB760FF0C94AD0201270C94AD02A4
:1005700078940895F8940F93389A0F910F934098B8
:100580000F910E944C020F9338980F910E945002D5
:1005900078940895F8940F93389A0F910F93409898
:1005A0000F910E9454020F9338980F910E945802A5
:1005B00078940895F8940F93389A0F910F93409878
:1005C0000F910E944C020F9338980F910E945C0289
:1005D000309BE894309968940E9460027894089562
:1005E000F8940F93389A0F910F9340980F910E94AF
:1005F00064020F9338980F910E94680230990C940E
:100600000A030F93009121020E7F009321020F91A4
:100610000C9413030F9300912102016000932102B7
:100620000F910E9494050E946C02789408951F9384
:100630001091210210FD0C94270318E000FD0E9488
:10064000BA0200FF0E94CA0206951A95B9F71F91D7
:1006500008950091210200FD0C94370318E00191E8
:100660000F93002F0E9417030F911A95C1F7089559
:100670001F931091210210FD0C9443030F93002F40
:100680000E9417030F911F9108950F931F933F939B
:10069000002718E00E94DA023FB736FF889436FD43
:1006A000089407951A95B1F7019318E02A9591F7E8
:1006B0003F911F910F9108950F930091210200FD2A
:1006C0000C9473030FEF0F93002F0E9417030F91E9
:1006D0000F93002F0E9417030F91012F0F93002FEC
:1006E0000E9417030F910F910895013009F011F442
:1006F0000E94A1030E948B0308950F930091210291
:1007000000FD0C9489030E94DA020FB706FF0C94D7
:100710007E030F9108950F930F93229A0F910F93D9
:100720002A9A0F910E9458020BE40E9470020A95C7
:10073000E1F70F932A980F910F9322980F910F9141
:1007400008950F93229A0F910F932A9A0F910E9466
:1007500074020F932A980F910F9322980F91089586
:10076000FF93EF930F931F932F930F9300E000934A
:1007700021020F910091210200FD0C948804403F5A
:1007800021F4F2E0E6E00C94C703F2E0EEE0009121
:10079000210204FD0C9488040F930FEF00932202B2
:1007A0000F910F9300E0009323020F91403F39F423
:1007B0000F9300EF0E9438030F910C94E4030F9302
:1007C0000CEE0E9438030F910E94DA020FB71091CD
:1007D000210206FF1F7D06FD1062109321020E9478
:1007E000DA020FB71091210215FD0C94FC0306FDEF
:1007F0000C9433040C94010406FD0C9401040C9435
:1008000033041091210215FD0C948E0400912302F3
:1008100010912402011749F40F9300912102006402
:10082000009321020F910C943B04011748F00F93A1
:10083000009121020F7B009321020F910C942A0456
:10084000009121021091250217FF0F7B17FD006414
:1008500000932102109121020091230216FF0093C0
:1008600022020C943B041091210215FF1F7B15FD01
:100870001064109321021091210200912502069527
:1008800016FF0F7716FD006813950093250210934D
:100890002102212F2F70283021F40193107F109313
:1008A00021021091210216FF0E94CA0216FD0E9429
:1008B000BA02109123021395109323021091230280
:1008C000103410F40C94E4030091220200932402EB
:1008D0000F3F39F40F930091210200610093210230
:1008E0000F910F931F932F933F934F935F936F93AA
:1008F00038E048E038970E947C026F915F914F91F9
:100900003F912F911F910F910E9492040C94BA0372
:100910002F911F910F91EF91FF9108950E949705DC
:100920000C948804403F19F40E94950508950E9494
:10093000960508950E94F0020F930091210200FD98
:100940000C94C5040F9303E30E9438030F91FF93A7
:10095000EF932F93F2E0E6E028E00E9445030F9327
:100960001F932F933F934F935F936F9338E048E02B
:1009700038970E947C026F915F914F913F912F9128
:100980001F910F912F91EF91FF910F9108950E9468
:10099000F0020F930091210200FD0C94DA040F93F2
:1009A00005E50E9438030F910F931F930E942903BE
:1009B0001F910F910F9108950E94F0020F930091E3
:1009C000210200FD0C94E9044F9340EF0E94B00314
:1009D0004F910F9108950E94F0020F930091210210
:1009E00000FD0C94F8044F934CEE0E94B0034F911D
:1009F0000F9108950E94F0020F930091210200FDD3
:100A00000C9407050F930CEC0E9438030F910F9183
:100A100008950F930FB706FD0C9417050F930091DF
:100A200021020F77009321020F910C941E050F9362
:100A3000009121020068009321020F910F91089507
:100A40000091210200FD0C948B050091170210917A
:100A50001602110F001F110F001F110F001F110FA1
:100A6000001F07FF0C943F050F93009121020460C3
:100A7000009321020F91009510950C9446050F9359
:100A8000009121020B7F009321020F911295109388
:100A9000200214E60F9300912102077F00932102A8
:100AA0000F91011B4AF00F930091210208600093FF
:100AB00021020F910C945105010F22271AE0011B0E
:100AC0001AF023950C945F05010F0295000F221F69
:100AD000000F221F000F221F000F221F20931F0252
:100AE000FBE0E8E100912002E00F0027F01F0491F5
:100AF00022271AE0011B1AF023950C947A05010FA6
:100B00000295000F221F000F221F000F221F000F4F
:100B1000221F20932002089500060C13191F262C73
:100B200032383F454B51585E089508950895089511
:100B3000089508950FEF0DBF01E20EBF78940EE304
:100B40000093B80000E208600093000208E004602F
:100B5000026001600093010204E00260009302025F
:100B600000E10460009303020E9485010F9300914D
:100B700021020068009321020F910E9412060E9438
:100B80009A04FF93EF93F2E0E6E00E94C704EF912E
:100B9000FF910F9304E40E9438030F910F931F936A
:100BA00001E01091210217FD0E947D030E94750350
:100BB0001F910F91FF93EF93F2E0E6E00E94C704CC
:100BC000EF91FF910F930EEB0E9438030F91FF936B
:100BD000EF932F93F2E0E6E129E00E9445030F93A3
:100BE0001F932F933F934F935F936F9339E049E0A7
:100BF00039970E947C026F915F914F913F912F91A5
:100C00001F910F912F91EF91FF910F931F932F93AE
:100C1000FF93EF930E942005EF91FF912F911F9179
:060C20000F91FFCF0895C3
:00000001FF
