:020000020000FC
:100000000C944C021197F1F70895B7E2A0E10E9419
:100010000200B7E2A0E10E94020008950F93009150
:10002000B900087F0113FBCF0F9108950F93009142
:10003000BC0007FFFCCF0F9108950F9304EA0093D3
:10004000BC000E9416000F9108950093BB0004E8C5
:100050000093BC000E94160008950F9304E90093DA
:10006000BC000E9405000F910895B0E0A6E10E9437
:1000700002000895B0E0ABE50E9402000895B1E0EF
:10008000A9EC0E9402000895B7E2A0E10E940200DC
:10009000B7E2A0E10E9402000895BCE9A0E40E943A
:1000A0000200BCE9A0E40E94020008951F93109191
:1000B000040213FF032B13FD042B1F9108950F93CC
:1000C0001F930AE00F93002F0E9425001F9318E250
:1000D0000E940E001F910F910EEF0F93002F0E94B0
:1000E00025001F9318E20E940E001F910F910E949D
:1000F00035000E941D000F9300E701600E9425005B
:100100001F9310E40E940E001F910F911091BB00ED
:100110000E9427000E941D000F9300E70E94250007
:100120001F9318E10E940E001F910F910AE00F9398
:10013000002F0E9425001F9318E20E940E001F91BD
:100140000F910EEF0F93002F0E9425001F9318E2CE
:100150000E940E001F910F910E9435000AE00F933C
:10016000002F0E9425001F9318E20E940E001F918D
:100170000F9108E00F93002F0E9425001F9318E2B3
:100180000E940E001F910F9117FD99CF1F910F91A3
:1001900008950E94CE000E94FA0008950F93007FF8
:1001A0000F933F934F9334E04CE00E9456004F91E1
:1001B0003F910F93002F0E9425001F9318E20E9489
:1001C0000E001F910F910F913F934F9330E048E045
:1001D0000E9456004F913F910E9435000F93002FCF
:1001E0000E9425001F9318E20E940E001F910F919C
:1001F0000F9108950295007F0F933F934F9334E042
:100200004CE00E9456004F913F910F93002F0E94A7
:1002100025001F9318E20E940E001F910F910F916D
:100220003F934F9330E048E00E9456004F913F913A
:100230000E9435000F93002F0E9425001F9318E2A3
:100240000E940E001F910F9108950E942A010E94A2
:10025000580108950F93007F0F933F934F9335E01C
:100260004DE00E9456004F913F910F93002F0E9446
:1002700025001F9318E20E940E001F910F910F910D
:100280003F934F9331E049E00E9456004F913F91D8
:100290000E9435000E9435000F93002F0E94250018
:1002A0001F9318E20E940E001F910F910F91089565
:1002B0000295007F0F933F934F9335E04DE00E94EE
:1002C00056004F913F910F93002F0E9425001F93DE
:1002D00018E20E940E001F910F910F913F934F93D0
:1002E00031E049E00E9456004F913F910E94350055
:1002F0000E9435000F93002F0E9425001F9318E2E3
:100300000E940E001F910F91089503E00E944D007E
:100310000E941D000F9300E70E9425001F9318E123
:100320000E940E001F910F9100E30E94CE000E94D8
:10033000440000E30E94CE000E943F0000E30E94C0
:10034000CE0000E20E94CE000E945F0000910002F9
:100350000F93002F0E94C9000F910E945F0000912F
:1003600001020E943F000F93002F0E94C9000F91CD
:100370000E945F0001E00E943F000F93002F0E9447
:10038000C9000F910E945F00009102020E943F008D
:100390000F93002F0E94C9000F91009110000F933E
:1003A000002F0E94C9000F910E942D000895113066
:1003B00031F0123039F0133041F0143049F01FE7BA
:1003C000010F08C01FEB010F05C013E9010F02C0A8
:1003D00013ED010F102F1058109305020F93002FEB
:1003E0000E94C9000F9108953F9330910502339503
:1003F000343151F40F931F9312E001E00E94D701B2
:100400001F910F913F910895343551F40F931F932D
:1004100013E001E00E94D7011F910F913F910895D1
:10042000383251F40F931F9314E001E00E94D7017A
:100430001F910F913F910895383651F40F931F93F8
:1004400011E001E00E94D7011F910F913F910895A3
:10045000309305023F9108951F930F9315910591D5
:100460000F93002F0E9425010F910E94F4011A950D
:10047000B1F70F911F9108951F930F93119101915F
:100480000F93002F0E9425010F910E94F4011A95ED
:10049000B1F70F911F9108950FEF0DBF01E20EBF4D
:1004A00078940EE30093B80000E208600093000225
:1004B00008E00460026001600093010204E0026051
:1004C0000093020200E10460009303020E94850190
:1004D0000E946B02FFCF0C48656C6C6F20576F72E7
:1004E0006C6421200E941D000F9300E70E942500EC
:1004F0001F9318E10E940E001F910F910F931F93FD
:1005000012E001E00E94D7011F910F91FF93EF933A
:10051000F4E0E6ED0E942C02EF91FF910E942D0085
:0205200008953C
:00000001FF
