:020000020000FC
:040000000C94EA056D
:100074000C94D4051197F1F70895B7E2A0E10E941A
:100084003C00B7E2A0E10E943C0008950F93009168
:10009400B900087F0113FBCF0F9108950F930091CE
:1000A400BC0007FFFCCF0F9108950F9304EA00935F
:1000B400BC000E9450000F9108950093BB0004E817
:1000C4000093BC000E94500008950F9304E900932C
:1000D400BC000E943F000F910895B0E0A6E10E9489
:1000E4003C000895B0E0ABE50E943C000895B1E007
:1000F400A9EC0E943C000895B7E2A0E10E943C00F4
:10010400B7E2A0E10E943C000895BCE9A0E40E948B
:100114003C00BCE9A0E40E943C0008951F931091A8
:10012400040213FF032B13FD042B1F9108950F9357
:100134001F930AE00F93002F0E945F001F9318E2A1
:100144000E9448001F910F910EEF0F93002F0E9401
:100154005F001F9318E20E9448001F910F910E94B4
:100164006F000E9457000F9300E701600E945F0038
:100174001F9310E40E9448001F910F911091BB003F
:100184000E9461000E9457000F9300E70E945F00E5
:100194001F9318E10E9448001F910F910AE00F93EA
:1001A400002F0E945F001F9318E20E9448001F91D5
:1001B4000F910EEF0F93002F0E945F001F9318E220
:1001C4000E9448001F910F910E946F000AE00F9354
:1001D400002F0E945F001F9318E20E9448001F91A5
:1001E4000F9108E00F93002F0E945F001F9318E205
:1001F4000E9448001F910F9117FD99CF1F910F91F5
:1002040008950E9408010E94340108950F93007F0D
:100214000F933F934F9334E04CE00E9490004F9132
:100224003F910F93002F0E945F001F9318E20E94DA
:1002340048001F910F910F913F934F9330E048E096
:100244000E9490004F913F910E946F000F93002FE6
:100254000E945F001F9318E20E9448001F910F91B3
:100264000F9108950295007F0F933F934F9334E0CD
:100274004CE00E9490004F913F910F93002F0E94F9
:100284005F001F9318E20E9448001F910F910F9185
:100294003F934F9330E048E00E9490004F913F918C
:1002A4000E946F000F93002F0E945F001F9318E2BB
:1002B4000E9448001F910F9108950E9464010E94BA
:1002C400920108950F93007F0F933F934F9335E06E
:1002D4004DE00E9490004F913F910F93002F0E9498
:1002E4005F001F9318E20E9448001F910F910F9125
:1002F4003F934F9331E049E00E9490004F913F912A
:100304000E946F000E946F000F93002F0E945F00F5
:100314001F9318E20E9448001F910F910F910895B6
:100324000295007F0F933F934F9335E04DE00E9479
:1003340090004F913F910F93002F0E945F001F93F5
:1003440018E20E9448001F910F910F913F934F9321
:1003540031E049E00E9490004F913F910E946F006C
:100364000E946F000F93002F0E945F001F9318E2FA
:100374000E9448001F910F91089503E00E94870096
:100384000E9457000F9300E70E945F001F9318E13B
:100394000E9448001F910F9100E30E9408010E94EF
:1003A4007E0000E30E9408010E94790000E30E949D
:1003B400080100E20E9408010E94990000910002D5
:1003C4000F93002F0E9403010F910E949900009146
:1003D40001020E9479000F93002F0E9403010F91E4
:1003E4000E94990001E00E9479000F93002F0E945F
:1003F40003010F910E949900009102020E9479006A
:100404000F93002F0E9403010F91009110000F938E
:10041400002F0E9403010F910E946700089511307C
:1004240031F0123039F0133041F0143049F01FE745
:10043400010F08C01FEB010F05C013E9010F02C033
:1004440013ED010F102F1058109305020F93002F76
:100454000E9403010F9108953F9330910502339553
:10046400343151F40F931F9312E001E00E94110202
:100474001F910F913F910895343551F40F931F93B9
:1004840013E001E00E9411021F910F913F91089522
:10049400383251F40F931F9314E001E00E941102CB
:1004A4001F910F913F910895383651F40F931F9384
:1004B40011E001E00E9411021F910F913F910895F4
:1004C400309305023F9108951F930F931591059161
:1004D4000F93002F0E945F010F910E942E021A9524
:1004E400B1F70F911F9108951F930F9311910191EB
:1004F4000F93002F0E945F010F910E942E021A9504
:10050400B1F70F911F910895B0E0A5E1B3DD08950F
:10051400B0E0ADEFAFDD0895B0E0ADEEABDD089532
:10052400B0E0A5E2A7DD0895B0E0A1E2A3DD08955F
:10053400B0E0A9ED9FDD0895B7E0ADE79BDD089538
:10054400B1E0A5E197DD0895B6E0A5E693DD089551
:10055400BCE9A0E48FDD08950F930BE40E94AA0286
:100564000A95E1F70F9108950091210200FD0C9482
:10057400E4020F93009121020D7F009321020F9159
:1005840001911CE83A9521910E94E5023A95D9F728
:10059400003009F011F40C94E402042F1127389769
:1005A40011930A95E9F70F930091210202600093D9
:1005B40021020F91483021F40E94D2050C94E402E8
:1005C4000E94D3050895F89458E05A954CF0279565
:1005D40007956FB760FF0C94E70201270C94E702BC
:1005E40078940895F8940F93389A0F910F93409844
:1005F4000F910E9486020F9338980F910E948A02ED
:1006040078940895F8940F93389A0F910F93409823
:100614000F910E948E020F9338980F910E949202BC
:1006240078940895F8940F93389A0F910F93409803
:100634000F910E9486020F9338980F910E949602A0
:10064400309BE894309968940E949A0278940895B3
:10065400F8940F93389A0F910F9340980F910E943A
:100664009E020F9338980F910E94A20230990C9425
:1006740044030F93009121020E7F009321020F91F6
:100684000C944D030F930091210201600093210209
:100694000F910E94CE050E94A602789408951F939C
:1006A4001091210210FD0C94610318E000FD0E94DA
:1006B400F40200FF0E94040306951A95B9F71F91EE
:1006C40008950091210200FD0C94710318E001913A
:1006D4000F93002F0E9451030F911A95C1F70895AB
:1006E4001F931091210210FD0C947D030F93002F92
:1006F4000E9451030F911F9108950F931F933F93ED
:10070400002718E00E9414033FB736FF889436FD93
:10071400089407951A95B1F7019318E02A9591F773
:100724003F911F910F9108950F930091210200FDB5
:100734000C94AD030FEF0F93002F0E9451030F9100
:100744000F93002F0E9451030F91012F0F93002F3D
:100754000E9451030F910F910895013009F011F493
:100764000E94DB030E94C50308950F9300912102A8
:1007740000FD0C94C3030E9414030FB706FF0C94EE
:10078400B8030F9108950F930F93229A0F910F932B
:100794002A9A0F910E9492020BE40E94AA020A95DF
:1007A400E1F70F932A980F910F9322980F910F91CD
:1007B40008950F93229A0F910F932A9A0F910E94F2
:1007C400AE020F932A980F910F9322980F910895D8
:1007D400FF93EF930F931F932F930F9300E00093D6
:1007E40021020F910091210200FD0C94C204403FAC
:1007F40021F4F2E0E6E00C940104F2E0EEE0009172
:10080400210204FD0C94C2040F930FEF0093220203
:100814000F910F9300E0009323020F91403F39F4AE
:100824000F9300EF0E9472030F910C941E040F9318
:100834000CEE0E9472030F910E9414030FB71091E3
:10084400210206FF1F7D06FD1062109321020E9403
:1008540014030FB71091210215FD0C94360406FD04
:100864000C946D040C943B0406FD0C943B040C9412
:100874006D041091210215FD0C94C804009123020B
:1008840010912402011749F40F930091210200648E
:10089400009321020F910C947504011748F00F93F3
:1008A400009121020F7B009321020F910C946404A8
:1008B400009121021091250217FF0F7B17FD0064A0
:1008C40000932102109121020091230216FF00934C
:1008D40022020C9475041091210215FF1F7B15FD53
:1008E40010641093210210912102009125020695B3
:1008F40016FF0F7716FD00681395009325021093D9
:100904002102212F2F70283021F40193107F10939E
:1009140021021091210216FF0E94040316FD0E9479
:10092400F4021091230213951093230210912302D1
:10093400103410F40C941E0400912202009324023B
:100944000F3F39F40F9300912102006100932102BB
:100954000F910F931F932F933F934F935F936F9335
:1009640038E048E038970E94B6026F915F914F914A
:100974003F912F911F910F910E94CC040C94F4038A
:100984002F911F910F91EF91FF9108950E94D1052E
:100994000C94C204403F19F40E94CF0508950E94AC
:1009A400D00508950E942A030F930091210200FDAF
:1009B4000C94FF040F9303E30E9472030F91FF93BF
:1009C400EF932F93F2E0E6E028E00E947F030F9379
:1009D4001F932F933F934F935F936F9338E048E0B7
:1009E40038970E94B6026F915F914F913F912F917A
:1009F4001F910F912F91EF91FF910F9108950E94F4
:100A04002A030F930091210200FD0C9414050F9307
:100A140005E50E9472030F910F931F930E946303D5
:100A24001F910F910F9108950E942A030F93009133
:100A3400210200FD0C9423054F9340EF0E94EA032A
:100A44004F910F9108950E942A030F930091210260
:100A540000FD0C9432054F934CEE0E94EA034F9133
:100A64000F9108950E942A030F930091210200FD23
:100A74000C9441050F930CEC0E9472030F910F919B
:100A840008950F930FB706FD0C9451050F93009131
:100A940021020F77009321020F910C9458050F93B4
:100AA400009121020068009321020F910F91089593
:100AB4000091210200FD0C94C505009117021091CC
:100AC4001602110F001F110F001F110F001F110F2D
:100AD400001F07FF0C9479050F9300912102046015
:100AE400009321020F91009510950C9480050F93AB
:100AF400009121020B7F009321020F911295109314
:100B0400200214E60F9300912102077F0093210233
:100B14000F91011B4AF00F9300912102086000938A
:100B240021020F910C948B05010F22271AE0011B5F
:100B34001AF023950C949905010F0295000F221FBA
:100B4400000F221F000F221F000F221F20931F02DD
:100B5400FBE0ECE800912002E00F0027F01F049175
:100B640022271AE0011B1AF023950C94B405010FF7
:100B74000295000F221F000F221F000F221F000FDB
:100B8400221F20932002089500060C13191F262CFF
:100B940032383F454B51585E08950895089508959D
:100BA40008950895F89400917900009308017894C9
:100BB40018950F9300917A00006800937A000F91C2
:100BC4000F9300917A00006400937A000F910895C6
:100BD4000FEF0DBF01E20EBF78940EE30093B8004F
:100BE40000E208600093000208E004600260016013
:100BF4000093010204E002600093020200E1046039
:100C0400009303020E94BF010F9300912102006828
:100C1400009321020F910F9300917A0001600093D9
:100C24007A000F910F9300917A00026000937A008A
:100C34000F910F9300917A00046000937A000F9152
:100C44000F9300917C00006400937C000F910F933C
:100C540000917C000F7700937C000F910F9300911B
:100C64007C00006200937C000F910F9300917C0044
:100C74000E7F00937C000F910F9300917C000D7FF9
:100C840000937C000F910F9300917C000B7F0093E5
:100C94007C000F910F9300917C000F7E00937C00E9
:100CA4000F910F9300917B00077F00937B000F91BE
:100CB4000F9300917A00006200937A000F910F93D2
:100CC40000917B000E7F00937B000F910F930091A6
:100CD4007B000D7F00937B000F910F9300917B00AD
:100CE4000B7F00937B000F910F9300917A000860B3
:100CF40000937A000F910E94D7060E94D404FF93B8
:100D0400EF93F2E0E6E00E940105EF91FF910F936B
:100D140004E40E9472030F910F931F9301E010915A
:100D2400210217FD0E94B7030E94AF031F910F9188
:100D3400FF93EF93F2E0E6E00E940105EF91FF914B
:100D44000F930EEB0E9472030F91FF93EF932F9377
:100D5400F2E0E6E129E00E947F030F931F932F93B3
:100D64003F934F935F936F9339E049E039970E9423
:100D7400B6026F915F914F913F912F911F910F9107
:100D84002F91EF91FF910F931F932F93FF93EF9365
:100D94000E945A05EF91FF912F911F910F910FEF30
:0C0DA400009307010E94DB05FFCF0895BB
:00000001FF
